{
  "contractName": "SolFunctions",
  "abi": [
    {
      "inputs": [],
      "name": "printNickname",
      "outputs": [
        {
          "internalType": "string",
          "name": "",
          "type": "string"
        }
      ],
      "stateMutability": "view",
      "type": "function"
    },
    {
      "inputs": [
        {
          "internalType": "string",
          "name": "_nickname",
          "type": "string"
        }
      ],
      "name": "setNickname",
      "outputs": [],
      "stateMutability": "payable",
      "type": "function"
    },
    {
      "inputs": [
        {
          "internalType": "uint256",
          "name": "birthdate",
          "type": "uint256"
        }
      ],
      "name": "AgeOfNickname",
      "outputs": [
        {
          "internalType": "uint256",
          "name": "",
          "type": "uint256"
        }
      ],
      "stateMutability": "pure",
      "type": "function"
    }
  ],
  "bytecode": "0x60806040526040518060400160405280600a81526020017f6d6f6f6e6861636b657200000000000000000000000000000000000000000000815250600090816200004a9190620002d9565b503480156200005857600080fd5b50620003c0565b600081519050919050565b7f4e487b7100000000000000000000000000000000000000000000000000000000600052604160045260246000fd5b7f4e487b7100000000000000000000000000000000000000000000000000000000600052602260045260246000fd5b60006002820490506001821680620000e157607f821691505b602082108103620000f757620000f662000099565b5b50919050565b60008190508160005260206000209050919050565b60006020601f8301049050919050565b600082821b905092915050565b600060088302620001617fffffffffffffffffffffffffffffffffffffffffffffffffffffffffffffffff8262000122565b6200016d868362000122565b95508019841693508086168417925050509392505050565b6000819050919050565b6000819050919050565b6000620001ba620001b4620001ae8462000185565b6200018f565b62000185565b9050919050565b6000819050919050565b620001d68362000199565b620001ee620001e582620001c1565b8484546200012f565b825550505050565b600090565b62000205620001f6565b62000212818484620001cb565b505050565b5b818110156200023a576200022e600082620001fb565b60018101905062000218565b5050565b601f82111562000289576200025381620000fd565b6200025e8462000112565b810160208510156200026e578190505b620002866200027d8562000112565b83018262000217565b50505b505050565b600082821c905092915050565b6000620002ae600019846008026200028e565b1980831691505092915050565b6000620002c983836200029b565b9150826002028217905092915050565b620002e4826200005f565b67ffffffffffffffff8111156200030057620002ff6200006a565b5b6200030c8254620000c8565b620003198282856200023e565b600060209050601f8311600181146200035157600084156200033c578287015190505b620003488582620002bb565b865550620003b8565b601f1984166200036186620000fd565b60005b828110156200038b5784890151825560018201915060208501945060208101905062000364565b86831015620003ab5784890151620003a7601f8916826200029b565b8355505b6001600288020188555050505b505050505050565b6107c180620003d06000396000f3fe6080604052600436106100345760003560e01c80631c5d9faa146100395780635289d50f14610055578063e2236cca14610092575b600080fd5b610053600480360381019061004e91906102d3565b6100bd565b005b34801561006157600080fd5b5061007c60048036038101906100779190610352565b6100d0565b604051610089919061038e565b60405180910390f35b34801561009e57600080fd5b506100a76100e7565b6040516100b49190610428565b60405180910390f35b80600090816100cc9190610656565b5050565b6000816107e76100e09190610757565b9050919050565b6060600080546100f690610479565b80601f016020809104026020016040519081016040528092919081815260200182805461012290610479565b801561016f5780601f106101445761010080835404028352916020019161016f565b820191906000526020600020905b81548152906001019060200180831161015257829003601f168201915b5050505050905090565b6000604051905090565b600080fd5b600080fd5b600080fd5b600080fd5b6000601f19601f8301169050919050565b7f4e487b7100000000000000000000000000000000000000000000000000000000600052604160045260246000fd5b6101e082610197565b810181811067ffffffffffffffff821117156101ff576101fe6101a8565b5b80604052505050565b6000610212610179565b905061021e82826101d7565b919050565b600067ffffffffffffffff82111561023e5761023d6101a8565b5b61024782610197565b9050602081019050919050565b82818337600083830152505050565b600061027661027184610223565b610208565b90508281526020810184848401111561029257610291610192565b5b61029d848285610254565b509392505050565b600082601f8301126102ba576102b961018d565b5b81356102ca848260208601610263565b91505092915050565b6000602082840312156102e9576102e8610183565b5b600082013567ffffffffffffffff81111561030757610306610188565b5b610313848285016102a5565b91505092915050565b6000819050919050565b61032f8161031c565b811461033a57600080fd5b50565b60008135905061034c81610326565b92915050565b60006020828403121561036857610367610183565b5b60006103768482850161033d565b91505092915050565b6103888161031c565b82525050565b60006020820190506103a3600083018461037f565b92915050565b600081519050919050565b600082825260208201905092915050565b60005b838110156103e35780820151818401526020810190506103c8565b60008484015250505050565b60006103fa826103a9565b61040481856103b4565b93506104148185602086016103c5565b61041d81610197565b840191505092915050565b6000602082019050818103600083015261044281846103ef565b905092915050565b7f4e487b7100000000000000000000000000000000000000000000000000000000600052602260045260246000fd5b6000600282049050600182168061049157607f821691505b6020821081036104a4576104a361044a565b5b50919050565b60008190508160005260206000209050919050565b60006020601f8301049050919050565b600082821b905092915050565b60006008830261050c7fffffffffffffffffffffffffffffffffffffffffffffffffffffffffffffffff826104cf565b61051686836104cf565b95508019841693508086168417925050509392505050565b6000819050919050565b600061055361054e6105498461031c565b61052e565b61031c565b9050919050565b6000819050919050565b61056d83610538565b6105816105798261055a565b8484546104dc565b825550505050565b600090565b610596610589565b6105a1818484610564565b505050565b5b818110156105c5576105ba60008261058e565b6001810190506105a7565b5050565b601f82111561060a576105db816104aa565b6105e4846104bf565b810160208510156105f3578190505b6106076105ff856104bf565b8301826105a6565b50505b505050565b600082821c905092915050565b600061062d6000198460080261060f565b1980831691505092915050565b6000610646838361061c565b9150826002028217905092915050565b61065f826103a9565b67ffffffffffffffff811115610678576106776101a8565b5b6106828254610479565b61068d8282856105c9565b600060209050601f8311600181146106c057600084156106ae578287015190505b6106b8858261063a565b865550610720565b601f1984166106ce866104aa565b60005b828110156106f6578489015182556001820191506020850194506020810190506106d1565b86831015610713578489015161070f601f89168261061c565b8355505b6001600288020188555050505b505050505050565b7f4e487b7100000000000000000000000000000000000000000000000000000000600052601160045260246000fd5b60006107628261031c565b915061076d8361031c565b925082820390508181111561078557610784610728565b5b9291505056fea2646970667358221220723f56277755c804d6742d82a7458e8ec268238557950b66a495cbfc4961f46d64736f6c63430008110033",
  "immutableReferences": {},
  "source": "// SPDX-License-Identifier: MIT\n// compiler version must be greater than or equal to 0.8.17 and less than 0.9.0\npragma solidity ^0.8.17;\n\ncontract SolFunctions {\n    string private nickname = \"moonhacker\";\n\n    function printNickname() public view returns(string memory) {\n        return nickname;\n    }\n\n    function setNickname(string memory _nickname) public payable {\n        nickname = _nickname;\n    }\n\n    function AgeOfNickname(uint birthdate) public pure returns(uint256){\n        return (2023 - birthdate);\n    }\n}",
  "sourcePath": "/home/nyambura00/Desktop/Solidity Devt/SolFunctions/contracts/SolFunctions.sol",
  "compiler": {
    "name": "solc",
    "version": "0.8.17+commit.8df45f5f.Emscripten.clang"
  },
  "schemaVersion": "3.4.10",
  "updatedAt": "2023-01-16T22:43:36.469Z",
  "devdoc": {
    "kind": "dev",
    "methods": {},
    "version": 1
  },
  "userdoc": {
    "kind": "user",
    "methods": {},
    "version": 1
  }
}